:100000000C942A000C9472010C943C000C943C005B
:100010000C943C000C944D010C943C000C943C005E
:100020000C943C000C943C000C943C000C94EB00B1
:100030000C943C000C943C000C943C000C943C0050
:100040000C943C000C943C000C943C000C943C0040
:100050000C943C0011241FBECFE5D8E0DEBFCDBF1D
:1000600020E0A0E6B0E001C01D92AC36B207E1F797
:100070000E94DB010C94DC030C94000041E060E082
:1000800080E00E94E00141E060E081E00E94E00148
:1000900041E060E082E00E94E00141E061E080E058
:1000A0000E94E00141E061E081E00E94E00141E066
:1000B00061E082E00E94E00163E082E00E94CC0106
:1000C0008FB780688FBF85B7816085BF85B78D7F0B
:1000D00085BF8BB780648BBF89B7816089BF89B7C3
:1000E000806489BF80E00E942C0380E00E9483032B
:1000F00067EF82E00E94410308958091620084309E
:1001000018F010926200F9CF813011F130F0823096
:1001100099F1833009F44BC0F0CF60E080E00E9499
:10012000D00160E081E00E94D40160E082E00E94A2
:10013000D40161E080E00E94D40161E081E00E948E
:10014000D40161E082E00E94D00110926100D5CF1D
:1001500081E08093610060E080E00E94D40160E073
:1001600082E00E94D40161E080E00E94D40161E05D
:1001700082E00E94D401C1CF60E080E00E94D401FF
:1001800060E081E00E94D40160E082E00E94D00142
:1001900061E080E00E94D00161E081E00E94D40132
:1001A00061E082E00E94D40110926100A6CF81E05C
:1001B0008093610060E080E00E94D40160E082E012
:1001C0000E94D40161E080E00E94D40161E082E0FD
:1001D0000E94D40192CF1F920F920FB60F9211245A
:1001E0002F933F934F935F936F937F938F939F933F
:1001F000AF93BF93EF93FF93809167009091680056
:10020000A0916900B0916A008E339105A105B105F6
:1002100060F40196A11DB11D809367009093680062
:10022000A0936900B0936A0027C0CE97A105B105DD
:1002300018F180916B008F5F80936B00809161005B
:10024000813039F460E00E94D80161E081E00E94D1
:10025000D80180916B00853039F4809162008F5F06
:100260008093620010926B001092670010926800F9
:100270001092690010926A00FF91EF91BF91AF91C7
:100280009F918F917F916F915F914F913F912F91AE
:100290000F900FBE0F901F9018951F920F920FB6E0
:1002A0000F9211248F939F93AF93BF93809163001C
:1002B00090916400A0916500B09166000196A11D27
:1002C000B11D8093630090936400A0936500B09388
:1002D0006600BF91AF919F918F910F900FBE0F90CD
:1002E0001F9018951F920F920FB60F9211242F9303
:1002F0003F934F935F936F937F938F939F93AF93AE
:10030000BF93EF93FF93809160008F5F80936000B5
:10031000813019F0823031F02EC06FE282E00E940D
:10032000980329C08091630090916400A0916500BA
:10033000B09166004F97A105B10588F480916200E5
:1003400081110DC08F5F8093620010926B0010923C
:100350006700109268001092690010926A000E9473
:10036000DA031092630010926400109265001092FC
:10037000660010926000FF91EF91BF91AF919F9145
:100380008F917F916F915F914F913F912F910F903E
:100390000FBE0F901F90189540E00E94E001089555
:1003A00041E00E946602089540E00E9466020895BE
:1003B0000E94EC0208950E943E000E947D00FDCF45
:1003C000643008F082C0883008F07FC04130E1F529
:1003D000613099F028F06230E9F0633041F108951E
:1003E0004AB321E030E0B90102C0660F771F8A9559
:1003F000E2F7CB01842B8ABB089547B321E030E0BC
:10040000B90102C0660F771F8A95E2F7CB01842BF2
:1004100087BB089544B321E030E0B90102C0660F04
:10042000771F8A95E2F7CB01842B84BB089541B3F3
:1004300021E030E0B90102C0660F771F8A95E2F72C
:10044000CB01842B81BB089541113FC06130A1F0E5
:1004500028F06230F9F0633059F108954AB321E091
:1004600030E0B90102C0660F771F8A95E2F7CB0131
:10047000809584238ABB089547B321E030E0B90119
:1004800002C0660F771F8A95E2F7CB01809584231F
:1004900087BB089544B321E030E0B90102C0660F84
:1004A000771F8A95E2F7CB018095842384BB08955A
:1004B00041B321E030E0B90102C0660F771F8A9591
:1004C000E2F7CB018095842381BB0895643008F066
:1004D00082C0883008F07FC04130E1F5613099F08A
:1004E00028F06230E9F0633041F108954BB321E028
:1004F00030E0B90102C0660F771F8A95E2F7CB01A1
:10050000842B8BBB089548B321E030E0B90102C0D1
:10051000660F771F8A95E2F7CB01842B88BB08957D
:1005200045B321E030E0B90102C0660F771F8A951C
:10053000E2F7CB01842B85BB089542B321E030E084
:10054000B90102C0660F771F8A95E2F7CB01842BB1
:1005500082BB089541113FC06130A1F028F06230A4
:10056000F9F0633059F108954BB321E030E0B9015F
:1005700002C0660F771F8A95E2F7CB01809584232E
:100580008BBB089548B321E030E0B90102C0660F8B
:10059000771F8A95E2F7CB018095842388BB089565
:1005A00045B321E030E0B90102C0660F771F8A959C
:1005B000E2F7CB018095842385BB089542B321E007
:1005C00030E0B90102C0660F771F8A95E2F7CB01D0
:1005D0008095842382BB08956430E8F58830D8F58F
:1005E000613099F028F06230E9F0633041F108950C
:1005F0004BB321E030E0B90102C0660F771F8A9546
:10060000E2F7CB0184278BBB089548B321E030E0AB
:10061000B90102C0660F771F8A95E2F7CB018427E4
:1006200088BB089545B321E030E0B90102C0660FF0
:10063000771F8A95E2F7CB01842785BB089542B3E3
:1006400021E030E0B90102C0660F771F8A95E2F71A
:10065000CB01842782BB0895843090F4813041F02F
:1006600028F0823041F0833049F0089513BE089598
:1006700080E483BF089588E083BF089588E483BF42
:10068000089562BF8530F0F58230F9F028F48823B0
:1006900041F0813081F00895833009F1843049F1CF
:1006A000089583B7816083BF83B78D7F83BF83B78E
:1006B0008B7F83BF089583B78E7F83BF83B78260AC
:1006C00083BF83B78B7F83BF089583B7816083BF68
:1006D00083B7826083BF83B78B7F83BF089583B75F
:1006E0008E7F83BF83B78D7F83BF83B7846083BFD3
:1006F000089583B7816083BF83B78D7F83BF83B73E
:10070000846083BF0895843090F4813041F028F0F4
:10071000823041F0833049F0089515BC089580E49B
:1007200085BD089588E085BD089588E485BD089558
:1007300064BD8530F0F58230F9F028F4882341F06B
:10074000813081F00895833009F1843049F10895B2
:1007500085B5816085BD85B58D7F85BD85B58B7F70
:1007600085BD089585B58E7F85BD85B5826085BDC3
:1007700085B58B7F85BD089585B58E7F85BD85B593
:100780008D7F85BD85B5846085BD089585B58E7FD7
:1007900085BD85B5826085BD85B5846085BD0895BC
:1007A00085B5816085BD85B5826085BD85B5846070
:0C07B00085BD089515BC0895F894FFCF96
:00000001FF
